{
  "_format": "hh-sol-artifact-1",
  "contractName": "Waveportal",
  "sourceName": "contracts/Waveportal.sol",
  "abi": [
    {
      "inputs": [],
      "stateMutability": "payable",
      "type": "constructor"
    },
    {
      "anonymous": false,
      "inputs": [
        {
          "indexed": true,
          "internalType": "address",
          "name": "from",
          "type": "address"
        },
        {
          "indexed": false,
          "internalType": "string",
          "name": "msessage",
          "type": "string"
        },
        {
          "indexed": false,
          "internalType": "uint256",
          "name": "timestamp",
          "type": "uint256"
        }
      ],
      "name": "NewWave",
      "type": "event"
    },
    {
      "inputs": [],
      "name": "getAllWaves",
      "outputs": [
        {
          "components": [
            {
              "internalType": "address",
              "name": "waver",
              "type": "address"
            },
            {
              "internalType": "string",
              "name": "message",
              "type": "string"
            },
            {
              "internalType": "uint256",
              "name": "timestamp",
              "type": "uint256"
            }
          ],
          "internalType": "struct Waveportal.Wave[]",
          "name": "",
          "type": "tuple[]"
        }
      ],
      "stateMutability": "view",
      "type": "function"
    },
    {
      "inputs": [],
      "name": "getTotalWaves",
      "outputs": [
        {
          "internalType": "uint256",
          "name": "",
          "type": "uint256"
        }
      ],
      "stateMutability": "view",
      "type": "function"
    },
    {
      "inputs": [
        {
          "internalType": "address",
          "name": "",
          "type": "address"
        }
      ],
      "name": "lastWaved",
      "outputs": [
        {
          "internalType": "uint256",
          "name": "",
          "type": "uint256"
        }
      ],
      "stateMutability": "view",
      "type": "function"
    },
    {
      "inputs": [
        {
          "internalType": "string",
          "name": "_message",
          "type": "string"
        }
      ],
      "name": "wave",
      "outputs": [],
      "stateMutability": "nonpayable",
      "type": "function"
    },
    {
      "inputs": [
        {
          "internalType": "uint256",
          "name": "",
          "type": "uint256"
        }
      ],
      "name": "waves",
      "outputs": [
        {
          "internalType": "address",
          "name": "waver",
          "type": "address"
        },
        {
          "internalType": "string",
          "name": "message",
          "type": "string"
        },
        {
          "internalType": "uint256",
          "name": "timestamp",
          "type": "uint256"
        }
      ],
      "stateMutability": "view",
      "type": "function"
    }
  ],
  "bytecode": "0x60806040526200004f6040518060400160405280601581526020017f48657920496d20736d61727420636f6e747261637400000000000000000000008152506200007760201b620007211760201c565b606444426200005f91906200017c565b6200006b9190620001e6565b600181905550620002dc565b62000117816040516024016200008e9190620002b8565b6040516020818303038152906040527f41304fac000000000000000000000000000000000000000000000000000000007bffffffffffffffffffffffffffffffffffffffffffffffffffffffff19166020820180517bffffffffffffffffffffffffffffffffffffffffffffffffffffffff83818316178352505050506200011a60201b60201c565b50565b60008151905060006a636f6e736f6c652e6c6f679050602083016000808483855afa5050505050565b6000819050919050565b7f4e487b7100000000000000000000000000000000000000000000000000000000600052601160045260246000fd5b6000620001898262000143565b9150620001968362000143565b9250828201905080821115620001b157620001b06200014d565b5b92915050565b7f4e487b7100000000000000000000000000000000000000000000000000000000600052601260045260246000fd5b6000620001f38262000143565b9150620002008362000143565b925082620002135762000212620001b7565b5b828206905092915050565b600081519050919050565b600082825260208201905092915050565b60005b838110156200025a5780820151818401526020810190506200023d565b60008484015250505050565b6000601f19601f8301169050919050565b600062000284826200021e565b62000290818562000229565b9350620002a28185602086016200023a565b620002ad8162000266565b840191505092915050565b60006020820190508181036000830152620002d4818462000277565b905092915050565b61137b80620002ec6000396000f3fe608060405234801561001057600080fd5b50600436106100575760003560e01c8063449d46c01461005c5780639a2cdc0814610078578063bd43a90814610096578063c781267a146100b4578063f4920770146100e6575b600080fd5b610076600480360381019061007191906109d9565b610116565b005b6100806104cd565b60405161008d9190610a3b565b60405180910390f35b61009e6104d6565b6040516100ab9190610c37565b60405180910390f35b6100ce60048036038101906100c99190610c85565b610627565b6040516100dd93929190610d0b565b60405180910390f35b61010060048036038101906100fb9190610d75565b610709565b60405161010d9190610a3b565b60405180910390f35b60016000808282546101289190610dd1565b925050819055506101706040518060400160405280601c81526020017f54686520746f74616c206e756d626572206f66207761766573202564000000008152506000546107ba565b600360405180606001604052803373ffffffffffffffffffffffffffffffffffffffff16815260200183815260200142815250908060018154018082558091505060019003906000526020600020906003020160009091909190915060008201518160000160006101000a81548173ffffffffffffffffffffffffffffffffffffffff021916908373ffffffffffffffffffffffffffffffffffffffff16021790555060208201518160010190816102289190611011565b5060408201518160020155505042600f600260003373ffffffffffffffffffffffffffffffffffffffff1673ffffffffffffffffffffffffffffffffffffffff168152602001908152602001600020546102829190610dd1565b106102c2576040517f08c379a00000000000000000000000000000000000000000000000000000000081526004016102b99061112f565b60405180910390fd5b42600260003373ffffffffffffffffffffffffffffffffffffffff1673ffffffffffffffffffffffffffffffffffffffff16815260200190815260200160002081905550606460015444426103179190610dd1565b6103219190610dd1565b61032b919061117e565b6001819055506103726040518060400160405280601e81526020017f52616e646f6d6c792067656e657261746564206e756d6265722025733a2000008152506001546107ba565b60326001541161047a57600066038d7ea4c680009050478111156103cb576040517f08c379a00000000000000000000000000000000000000000000000000000000081526004016103c2906111fb565b60405180910390fd5b60003373ffffffffffffffffffffffffffffffffffffffff16826040516103f19061124c565b60006040518083038185875af1925050503d806000811461042e576040519150601f19603f3d011682016040523d82523d6000602084013e610433565b606091505b5050905080610477576040517f08c379a000000000000000000000000000000000000000000000000000000000815260040161046e906112d3565b60405180910390fd5b50505b3373ffffffffffffffffffffffffffffffffffffffff167f6728ef66814a55b797863bf8ffcd954b19cbca4ed4f0e6cf04c980705fd82c3682426040516104c29291906112f3565b60405180910390a250565b60008054905090565b60606003805480602002602001604051908101604052809291908181526020016000905b8282101561061e57838290600052602060002090600302016040518060600160405290816000820160009054906101000a900473ffffffffffffffffffffffffffffffffffffffff1673ffffffffffffffffffffffffffffffffffffffff1673ffffffffffffffffffffffffffffffffffffffff16815260200160018201805461058390610e34565b80601f01602080910402602001604051908101604052809291908181526020018280546105af90610e34565b80156105fc5780601f106105d1576101008083540402835291602001916105fc565b820191906000526020600020905b8154815290600101906020018083116105df57829003601f168201915b50505050508152602001600282015481525050815260200190600101906104fa565b50505050905090565b6003818154811061063757600080fd5b90600052602060002090600302016000915090508060000160009054906101000a900473ffffffffffffffffffffffffffffffffffffffff169080600101805461068090610e34565b80601f01602080910402602001604051908101604052809291908181526020018280546106ac90610e34565b80156106f95780601f106106ce576101008083540402835291602001916106f9565b820191906000526020600020905b8154815290600101906020018083116106dc57829003601f168201915b5050505050908060020154905083565b60026020528060005260406000206000915090505481565b6107b7816040516024016107359190611323565b6040516020818303038152906040527f41304fac000000000000000000000000000000000000000000000000000000007bffffffffffffffffffffffffffffffffffffffffffffffffffffffff19166020820180517bffffffffffffffffffffffffffffffffffffffffffffffffffffffff8381831617835250505050610856565b50565b61085282826040516024016107d09291906112f3565b6040516020818303038152906040527fb60e72cc000000000000000000000000000000000000000000000000000000007bffffffffffffffffffffffffffffffffffffffffffffffffffffffff19166020820180517bffffffffffffffffffffffffffffffffffffffffffffffffffffffff8381831617835250505050610856565b5050565b60008151905060006a636f6e736f6c652e6c6f679050602083016000808483855afa5050505050565b6000604051905090565b600080fd5b600080fd5b600080fd5b600080fd5b6000601f19601f8301169050919050565b7f4e487b7100000000000000000000000000000000000000000000000000000000600052604160045260246000fd5b6108e68261089d565b810181811067ffffffffffffffff82111715610905576109046108ae565b5b80604052505050565b600061091861087f565b905061092482826108dd565b919050565b600067ffffffffffffffff821115610944576109436108ae565b5b61094d8261089d565b9050602081019050919050565b82818337600083830152505050565b600061097c61097784610929565b61090e565b90508281526020810184848401111561099857610997610898565b5b6109a384828561095a565b509392505050565b600082601f8301126109c0576109bf610893565b5b81356109d0848260208601610969565b91505092915050565b6000602082840312156109ef576109ee610889565b5b600082013567ffffffffffffffff811115610a0d57610a0c61088e565b5b610a19848285016109ab565b91505092915050565b6000819050919050565b610a3581610a22565b82525050565b6000602082019050610a506000830184610a2c565b92915050565b600081519050919050565b600082825260208201905092915050565b6000819050602082019050919050565b600073ffffffffffffffffffffffffffffffffffffffff82169050919050565b6000610aad82610a82565b9050919050565b610abd81610aa2565b82525050565b600081519050919050565b600082825260208201905092915050565b60005b83811015610afd578082015181840152602081019050610ae2565b60008484015250505050565b6000610b1482610ac3565b610b1e8185610ace565b9350610b2e818560208601610adf565b610b378161089d565b840191505092915050565b610b4b81610a22565b82525050565b6000606083016000830151610b696000860182610ab4565b5060208301518482036020860152610b818282610b09565b9150506040830151610b966040860182610b42565b508091505092915050565b6000610bad8383610b51565b905092915050565b6000602082019050919050565b6000610bcd82610a56565b610bd78185610a61565b935083602082028501610be985610a72565b8060005b85811015610c255784840389528151610c068582610ba1565b9450610c1183610bb5565b925060208a01995050600181019050610bed565b50829750879550505050505092915050565b60006020820190508181036000830152610c518184610bc2565b905092915050565b610c6281610a22565b8114610c6d57600080fd5b50565b600081359050610c7f81610c59565b92915050565b600060208284031215610c9b57610c9a610889565b5b6000610ca984828501610c70565b91505092915050565b610cbb81610aa2565b82525050565b600082825260208201905092915050565b6000610cdd82610ac3565b610ce78185610cc1565b9350610cf7818560208601610adf565b610d008161089d565b840191505092915050565b6000606082019050610d206000830186610cb2565b8181036020830152610d328185610cd2565b9050610d416040830184610a2c565b949350505050565b610d5281610aa2565b8114610d5d57600080fd5b50565b600081359050610d6f81610d49565b92915050565b600060208284031215610d8b57610d8a610889565b5b6000610d9984828501610d60565b91505092915050565b7f4e487b7100000000000000000000000000000000000000000000000000000000600052601160045260246000fd5b6000610ddc82610a22565b9150610de783610a22565b9250828201905080821115610dff57610dfe610da2565b5b92915050565b7f4e487b7100000000000000000000000000000000000000000000000000000000600052602260045260246000fd5b60006002820490506001821680610e4c57607f821691505b602082108103610e5f57610e5e610e05565b5b50919050565b60008190508160005260206000209050919050565b60006020601f8301049050919050565b600082821b905092915050565b600060088302610ec77fffffffffffffffffffffffffffffffffffffffffffffffffffffffffffffffff82610e8a565b610ed18683610e8a565b95508019841693508086168417925050509392505050565b6000819050919050565b6000610f0e610f09610f0484610a22565b610ee9565b610a22565b9050919050565b6000819050919050565b610f2883610ef3565b610f3c610f3482610f15565b848454610e97565b825550505050565b600090565b610f51610f44565b610f5c818484610f1f565b505050565b5b81811015610f8057610f75600082610f49565b600181019050610f62565b5050565b601f821115610fc557610f9681610e65565b610f9f84610e7a565b81016020851015610fae578190505b610fc2610fba85610e7a565b830182610f61565b50505b505050565b600082821c905092915050565b6000610fe860001984600802610fca565b1980831691505092915050565b60006110018383610fd7565b9150826002028217905092915050565b61101a82610ac3565b67ffffffffffffffff811115611033576110326108ae565b5b61103d8254610e34565b611048828285610f84565b600060209050601f83116001811461107b5760008415611069578287015190505b6110738582610ff5565b8655506110db565b601f19841661108986610e65565b60005b828110156110b15784890151825560018201915060208501945060208101905061108c565b868310156110ce57848901516110ca601f891682610fd7565b8355505b6001600288020188555050505b505050505050565b7f77616974203135207365636f6e64730000000000000000000000000000000000600082015250565b6000611119600f83610cc1565b9150611124826110e3565b602082019050919050565b600060208201905081810360008301526111488161110c565b9050919050565b7f4e487b7100000000000000000000000000000000000000000000000000000000600052601260045260246000fd5b600061118982610a22565b915061119483610a22565b9250826111a4576111a361114f565b5b828206905092915050565b7f547279696e6720746f207769746864726177206d6f7265206d6f6e6579000000600082015250565b60006111e5601d83610cc1565b91506111f0826111af565b602082019050919050565b60006020820190508181036000830152611214816111d8565b9050919050565b600081905092915050565b50565b600061123660008361121b565b915061124182611226565b600082019050919050565b600061125782611229565b9150819050919050565b7f4661696c656420746f2073656e64206d6f6e65792066726f6d2074686520636f60008201527f6e74726163740000000000000000000000000000000000000000000000000000602082015250565b60006112bd602683610cc1565b91506112c882611261565b604082019050919050565b600060208201905081810360008301526112ec816112b0565b9050919050565b6000604082019050818103600083015261130d8185610cd2565b905061131c6020830184610a2c565b9392505050565b6000602082019050818103600083015261133d8184610cd2565b90509291505056fea26469706673582212204c3faf790ad407bdfe9c476062910ae7fd4fb9d98e17954340c1d018c7bd194064736f6c63430008110033",
  "linkReferences": {},
  "deployedLinkReferences": {}
}